:100000000C9498000C94BA040C9493040C94C000C3
:100010000C94C0000C94C0000C94C0000C94C00060
:100020000C94C0000C94C0000C94C0000C94C00050
:100030000C94C0000C94C0000C94C0000C94C00040
:100040000C9449040C94C0000C944E030C942803A7
:100050000C94C0000C94C0000C94C0000C94C00020
:100060000C94C0000C94C000F415F915FE1503168D
:1000700008160D1612163A1117161C164E414E4947
:100080004E495459494E46CDCCCC3D0AD7233C1756
:10009000B7D13877CC2B329595E6241FB14F0A00A3
:1000A0000020410000C84200401C4620BCBE4CCA93
:1000B0001B0E5AAEC59D7472756E2D6272696467AF
:1000C000650A000A000A00454E4420412050414381
:1000D0004B45542C204D6F64653A00000000080029
:1000E00002010000030407000000000000000000FF
:1000F000000000250028002B00000000002400273D
:10010000002A00040404040404040402020202029B
:1001100002030303030303010204081020408001CB
:100120000204081020010204081020000518E3173B
:1001300011241FBECFEFD8E0DEBFCDBF26E0ACED6F
:10014000B2E001C01D92AD35B207E1F712E0A0E0C8
:10015000B1E0EAEFF3E402C005900D92AC3DB107C7
:10016000D9F710E0C7E9D0E004C02197FE010E9452
:10017000771CC639D107C9F70E94810D0C94F02174
:100180000C940000CF92DF92EF92FF920F931F9397
:10019000CF93DF936C017A018B01C0E0D0E0CE15E4
:1001A000DF0589F0D8016D918D01D601ED91FC91AB
:1001B0000190F081E02DC6010995892B11F47E0193
:1001C00002C02196ECCFC701DF91CF911F910F9113
:1001D000FF90EF90DF90CF900895FC01538D448DF8
:1001E000252F30E0842F90E0821B930B541710F0E2
:1001F000CF96089501970895FC01918D828D9817EF
:1002000061F0828DDF01A80FB11D5D968C91928DFA
:100210009F5F9F73928F90E008958FEF9FEF0895F7
:10022000FC01918D828D981731F0828DE80FF11DC0
:10023000858D90E008958FEF9FEF0895FC01918DDB
:10024000228D892F90E0805C9F4F821B91098F73D4
:100250009927089586E895E00E941E0121E0892BE8
:1002600009F420E0822F0895FC01848DDF01A80F9E
:10027000B11DA35ABF4F2C91848D90E001968F73CE
:100280009927848FA689B7892C93A089B1898C91ED
:1002900080648C93938D848D981306C00288F389B3
:1002A000E02D80818F7D80830895EF92FF920F93E0
:1002B0001F93CF93DF93EC0181E0888F9B8D8C8D12
:1002C000981305C0E889F989808185FD24C0F62E40
:1002D0000B8D10E00F5F1F4F0F731127E02E8C8DD9
:1002E000E8120CC00FB607FCFACFE889F9898081C3
:1002F00085FFF5CFCE010E943401F1CF8B8DFE0139
:10030000E80FF11DE35AFF4FF0820B8FEA89FB895A
:100310008081806207C0EE89FF896083E889F9895E
:1003200080818064808381E090E0DF91CF911F9194
:100330000F91FF90EF900895CF93DF93EC01888D9C
:100340008823C9F0EA89FB89808185FD05C0A889D9
:10035000B9898C9186FD0FC00FB607FCF5CF80815F
:1003600085FFF2CFA889B9898C9185FFEDCFCE01A9
:100370000E943401E7CFDF91CF91089580E090E0B3
:10038000892B29F00E942A0181110C940000089504
:100390003FB7F8948091640590916505A09166053A
:1003A000B091670526B5A89B05C02F3F19F00196AF
:1003B000A11DB11D3FBFBA2FA92F982F8827820FEB
:1003C000911DA11DB11DBC01CD0142E0660F771F3B
:1003D000881F991F4A95D1F7089508950895CF93DE
:1003E000DF931F92CDB7DEB76983DC01ED91FC91FD
:1003F0000280F381E02D41E050E0BE016F5F7F4F4E
:1004000009950F90DF91CF91089508950895CF93A6
:10041000DF931F92CDB7DEB76983DC01ED91FC91CC
:100420000280F381E02D41E050E0BE016F5F7F4F1D
:1004300009950F90DF91CF910895FC0123813481BC
:100440002627022E2295207F2025032E322F22954B
:100450002F700226269532272327220F220F220FE4
:100460002025348323830895089580E090E0089543
:100470000E940A1F0F931F93CF93DF93EC01888193
:100480009981009729F02A813B812617370788F444
:100490008B016F5F7F4F0E94401E009761F0998330
:1004A00088831B830A832C813D81232B11F4FC015B
:1004B000108281E001C080E0DF91CF911F910F9108
:1004C0000895EF92FF920F931F93CF93DF93EC0168
:1004D0007B018A01BA010E943A0228813981811187
:1004E0000DC02115310519F0C9010E94A81D1982FE
:1004F00018821D821C821B821A8206C01D830C83F7
:10050000B701C9010E94181FCE01DF91CF911F9141
:100510000F91FF90EF900895FC01808191810C94E0
:10052000A81DFC011182108213821282158214828E
:100530006115710551F0FB0101900020E9F7319739
:10054000AF01461B570B0C9461020895EF92FF9286
:100550000F931F93CF93DF938C017B01C0E0D0E01A
:10056000F701EC0FFD1F6491662361F0D801ED9156
:10057000FC910190F081E02DC8010995892B11F0C3
:100580002196EECFCE01DF91CF911F910F91FF9079
:10059000EF9008956115710579F0FB01019000203D
:1005A000E9F73197AF01461B570BDC01ED91FC9148
:1005B0000280F381E02D099480E090E008954F924D
:1005C0005F926F927F92EF92FF920F931F93CF9360
:1005D000DF93CDB7DEB7A1970FB6F894DEBF0FBE9D
:1005E000CDBF7C01FA01CB0119A2223008F42AE028
:1005F0008E010F5D1F4F422E512C612C712CBF01BB
:10060000A30192010E94551CF901CA010150110970
:100610006A3014F4605D01C0695CD8016C93232BCF
:10062000242B252B61F7B801C7010E94CA02A196AD
:100630000FB6F894DEBF0FBECDBFDF91CF911F91F3
:100640000F91FF90EF907F906F905F904F90089583
:100650001F920F920FB60F9211242F933F934F9337
:100660005F936F937F938F939F93AF93BF93EF931A
:10067000FF9386E895E00E943401FF91EF91BF91CE
:10068000AF919F918F917F916F915F914F913F912A
:100690002F910F900FBE0F901F9018951F920F92E1
:1006A0000FB60F9211242F938F939F93EF93FF9385
:1006B000E0919605F09197058081E0919C05F0917D
:1006C0009D0582FD12C0908180919F058F5F8F7381
:1006D0002091A005821751F0E0919F05F0E0EA57C4
:1006E000FA4F958F80939F0501C08081FF91EF9114
:1006F0009F918F912F910F900FBE0F901F90189583
:1007000090E0FC01E552FF4F3491FC01E95EFE4FA1
:100710002491FC01ED5FFE4FE491EE2309F43BC010
:10072000332339F1333091F038F43130A9F03230DD
:1007300001F584B58F7D12C0373091F03830A1F0CB
:100740003430B9F4809180008F7D03C080918000A7
:100750008F77809380000DC084B58F7784BD09C0EA
:100760008091B0008F7703C08091B0008F7D80931F
:10077000B000F0E0EE0FFF1FE151FF4FA591B491E3
:100780008FB7F894EC91611103C020952E2301C01E
:100790002E2B2C938FBF08958F929F92AF92BF9272
:1007A000CF92DF92EF92FF926B017C010E94C80111
:1007B0004B015C01C114D104E104F104F1F00E9489
:1007C000C801DC01CB0188199909AA09BB09883E37
:1007D0009340A105B10570F321E0C21AD108E108E8
:1007E000F10888EE880E83E0981EA11CB11CC1148C
:1007F000D104E104F10419F7DDCFFF90EF90DF9011
:10080000CF90BF90AF909F908F9008952FB7F8949E
:10081000609160057091610580916205909163051A
:100820002FBF08958F929F92AF92BF92CF92DF9287
:10083000EF92FF92CF93DF93EC016B010E940604CD
:100840004B015C01E12CF12C8D819E81DC01ED914D
:10085000FC910284F385E02D099597FF0FC00E945B
:100860000604DC01CB0188199909AA09BB098C157A
:100870009D05AE05BF0540F38FEF9FEFDF91CF9150
:10088000FF90EF90DF90CF90BF90AF909F908F90B0
:1008900008951F920F920FB60F9211242F933F933A
:1008A0008F939F93AF93BF93809160059091610563
:1008B000A0916205B091630530915F0523E0230F9D
:1008C0002D3720F40196A11DB11D05C026E8230F88
:1008D0000296A11DB11D20935F0580936005909342
:1008E0006105A0936205B0936305809164059091C2
:1008F0006505A0916605B09167050196A11DB11D22
:100900008093640590936505A0936605B093670591
:10091000BF91AF919F918F913F912F910F900FBEFB
:100920000F901F9018951F920F920FB60F921124DF
:100930002F933F934F935F936F937F938F939F93E7
:10094000AF93BF93EF93FF93E0910201F091030106
:100950000995FF91EF91BF91AF919F918F917F91F9
:100960006F915F914F913F912F910F900FBE0F901C
:100970001F9018951F920F920FB60F9211242F936C
:100980003F934F935F936F937F938F939F93AF9317
:10099000BF93EF93FF93E0910001F091010109955E
:1009A000FF91EF91BF91AF919F918F917F916F9147
:1009B0005F914F913F912F910F900FBE0F901F901D
:1009C0001895EF92FF921F93CF93DF931F92CDB7AD
:1009D000DEB77C01162F60E0FC01868549830E940A
:1009E0008003F701948585859CBD8DBD1EBD0000EB
:1009F00049810DB407FEFDCF8EB54EBD00000DB48C
:100A000007FEFDCF1EB561E0F70186850E948003D9
:100A1000812F0F90DF91CF911F91FF90EF9008955C
:100A20006F7740E00C94E104EF92FF921F93CF9315
:100A3000DF931F92CDB7DEB77C01DC01ED91FC9115
:100A40000084F185E02D0995892B99F06DE0C701AF
:100A50000E941005482F60E0C70149830E941005DD
:100A6000182F49816DE8C7010E94E104812F90E0B1
:100A700002C08FEF9FEF0F90DF91CF911F91FF90FA
:100A8000EF900895CF93DF93EC01E881F981008422
:100A9000F185E02D0995892B59F08E899F89019662
:100AA0009F8B8E8B60E0CE010E94100590E002C00B
:100AB0008FEF9FEFDF91CF910895CF93DF93EC01FC
:100AC00063E10E941005282F30E08E899F89A901DB
:100AD000481B590BCA01DF91CF9108958F929F92C5
:100AE000AF92BF92CF92DF92FF920F931F93CF935B
:100AF000DF931F92CDB7DEB76C01B62E4A0162E2DA
:100B000079830E941005F82E90E09C01280D391D74
:100B100079812F3F310531F028F02FEF30E0490186
:100B2000881A990A0B2D172F5801A80CB91C0A1501
:100B30001B0541F0F80141918F0160E8C6010E9458
:100B4000E104F5CF482D4F0D62EAC6010E94E10491
:100B5000C4010F90DF91CF911F910F91FF90DF9013
:100B6000CF90BF90AF909F908F900895CF92DF92DB
:100B7000EF92FF920F931F93CF93DF936C017B0152
:100B8000FC01C785D0890C811D810F5F1F4FB80103
:100B9000CE010E943A02882361F0288139818C813C
:100BA0009D8163EC72E0820F931F0E94181F1D83CA
:100BB0000C83F601C785D089F70184819581E08097
:100BC000F1800C811D81E114F104A9F0009799F0E6
:100BD000080F191FB801CE010E943A02882359F06C
:100BE000288139818C819D81B701820F931F0E94DA
:100BF000181F1D830C83DF91CF911F910F91FF90E0
:100C0000EF90DF90CF900895CF93DF93EC018D812B
:100C10009E81DC01ED91FC910084F185E02D099528
:100C20001816190654F48D819E81DC01ED91FC911A
:100C30000284F385E02D0995EACFDF91CF910895E5
:100C40002F923F924F925F926F927F928F929F92DC
:100C5000AF92BF92CF92DF92EF92FF920F931F93CA
:100C6000CF93DF93CDB7DEB72B970FB6F894DEBFE7
:100C70000FBECDBF9B878A875B011901FD82EC8285
:100C80003A01600E711E872C7B82912C44244A9479
:100C9000542C9B01240F351F3F832E839101200F7D
:100CA000311F39872887EA85FB858085981608F0EB
:100CB00036C1AA85BB8514965C924E921397159601
:100CC0008D919C911697DC01ED91FC910190F08142
:100CD000E02D6FEF09956FEF8A859B850E941D02BD
:100CE000EA85FB8585819681DC01ED91FC9101907F
:100CF000F081E02DAA85BB856C910995EA85FB857D
:100D00006081CF010E941D02AA85BB8515968D9139
:100D10009C911697DC01ED91FC910190F081E02D02
:100D2000682D09956B818A859B850E941D02EA8545
:100D3000FB8585819681DC01ED91FC910190F0812C
:100D4000E02D662D0995662D8A859B850E941D02E2
:100D500075012E813F81E216F306B1F0EA85FB852D
:100D6000858196818701DC01ED91FC910190F081F4
:100D7000E02DD7016D917D010995F80160818A858B
:100D80009B850E941D02E5CF7101AA85BB85159642
:100D90008D919C91169728853985E216F30691F07E
:100DA0008701DC01ED91FC910190F081E02DD701EC
:100DB0006D917D010995F80160818A859B850E946E
:100DC0001D02E3CFDC01ED91FC91AA85BB85149651
:100DD0006C910190F081E02D0995EA85FB85858174
:100DE0009681DC01ED91FC910190F081E02DAA85C6
:100DF000BB8513966C91099564E670E08A859B85A6
:100E00000E9412048F3F910509F07DC0EA85FB85A1
:100E1000548243826FEFCF010E941D0265E070E0B3
:100E20008A859B850E941204AA85BB856C91262F1A
:100E300030E08217930709F066C0CD010E941D02C1
:100E40006AE070E08A859B850E9412047C0197FD10
:100E50005AC0682F8A859B850E941D026AE070E057
:100E60008A859B850E9412048C0197FD4CC0682FD7
:100E70008A859B850E941D02EA821982E981FA8196
:100E80000E0F1F1FE12CF12C65E070E08A859B8519
:100E9000E016F106A9F0EC14FD0491F00E94120492
:100EA00097FD0AC0EC81FD81EE0DFF1D8083682F48
:100EB0008A859B850E941D02FFEFEF1AFF0AE4CF8F
:100EC0000E9412047C0197FD1EC065E070E08A85D7
:100ED0009B850E94120497FD16C0FE2CEE248E0DF9
:100EE0009F1DAA85BB8513962D913C9114972817B9
:100EF000390749F48C918F5F8C93C801C016D106D5
:100F000080F4C6010EC0939464E670E080E090E047
:100F10000E94CC038A859B850E940406C4CE8FEF75
:100F20009FEF2B960FB6F894DEBF0FBECDBFDF91BB
:100F3000CF911F910F91FF90EF90DF90CF90BF90D6
:100F4000AF909F908F907F906F905F904F903F9069
:100F50002F900895AF92BF92CF92DF92EF92FF92BF
:100F60000F931F93CF93DF9300D01F92CDB7DEB7BF
:100F7000FC01E85AFF4F20812F3F11F15A019B01DC
:100F800047E64983319640814A833997CC24C394FC
:100F9000D12CCE0103967C01850142E050E0BE01D8
:100FA0006F5F7F4F808191810E9420068B81882313
:100FB00029F090E091958195910904C0C50102C086
:100FC0008FEF9FEF0F900F900F90DF91CF911F91B8
:100FD0000F91FF90EF90DF90CF90BF90AF9008956A
:100FE0006F927F928F929F92AF92BF92CF92DF9239
:100FF000EF92FF920F931F93CF93DF93CDB7DEB79E
:1010000028970FB6F894DEBF0FBECDBF5C018B01F1
:10101000FC011382128288EE93E0A0E0B0E08483AA
:101020009583A683B78388E191E09183808335011E
:10103000F0E56F0E711CF301318320837501F2E539
:10104000EF0EF11C62EC72E0C70148870E9491022A
:10105000450188E5880E911C4885F40140830115FF
:10106000110569F0F80101900020E9F73197AF010F
:10107000401B510BB801C7010E9461020EC0F7016D
:1010800080819181009711F00E94A81DF7011182C3
:101090001082158214821382128282E7898387E785
:1010A0008A8381E68B8386E48E83F4018081FE014E
:1010B000E80FF11D81818F8381E090E0F501978732
:1010C0008687EA5AFF4F00811181F7012081318123
:1010D00082E0C82ED12CCE0104967C0142E050E083
:1010E000BE016A5F7F4FF301808191810E942006DB
:1010F0008C81882321F08FEFF401808307C0F501F4
:10110000E75AFF4F8D818083F501148628960FB62C
:10111000F894DEBF0FBECDBFDF91CF911F910F912D
:10112000FF90EF90DF90CF90BF90AF909F908F9007
:101130007F906F9008958F929F92AF92BF92CF92BF
:10114000DF92EF92FF920F931F93CF93DF931F9243
:10115000CDB7DEB75C019B014A01DC0152968C9150
:10116000811105C07B018B01040F151F31C080E583
:101170008983C12CD12CE12CF12C8A0141E050E073
:10118000BE016F5F7F4FF501848595850E94200623
:1011900022C0D5015596ED91FC91569753968C91AE
:1011A000539791E0980F53969C93D7019D917D01A1
:1011B000E80FF11D9083F50193898489981308C085
:1011C0000190F081E02D0680F781E02DC5010995A1
:1011D000E016F106F1F6C4010F90DF91CF911F9157
:1011E0000F91FF90EF90DF90CF90BF90AF909F90C6
:1011F0008F900895CF92DF92EF92FF920F931F93FB
:101200006801790100E010E020E030E00E94200653
:101210001F910F91FF90EF90DF90CF900895AF92C4
:10122000BF92CF92DF92EF92FF920F931F93CF93D3
:10123000DF9300D000D0CDB7DEB75C0182E58B83B1
:10124000D5011F96ED91FC91509704811581208165
:10125000318142E0C42ED12CFE0131967F0141E064
:1012600050E0BE016D5F7F4F1C968D919C911D9744
:101270000E9420068A81D5011E968C931E971F9688
:101280000D911C9150970115110531F0C8010E9474
:101290008C02C8010E94A81DF501108A1786898159
:1012A000811102C081E0818B32E7F32EF982D501F2
:1012B0001E968C911E978A8301E010E09E012D5F9F
:1012C0003F4F42E050E0BE016F5F7F4F1C968D9113
:1012D0009C911D970E94FA088B81813039F464E655
:1012E00070E080E090E00E94CC03E0CF87E58B8344
:1012F000F50186858C8302E010E09E012F5F3F4F51
:1013000042E050E0BE016D5F7F4F848595850E946D
:10131000FA08898190E0982F88272A81820F911DF1
:101320000F900F900F900F90DF91CF911F910F9121
:10133000FF90EF90DF90CF90BF90AF900895EF9225
:10134000FF920F931F93CF93DF9300D01F92CDB7DF
:10135000DEB7FC012289211118C07C01138A8FE4B9
:10136000898380E48B8386858A839F012C5E3F4F2F
:1013700000E410E043E050E0BE016F5F7F4F8485E2
:1013800095850E94FA08F701828B0F900F900F90BD
:10139000DF91CF911F910F91FF90EF900895CF9320
:1013A000DF93EC010E949F098A89882331F08B89A1
:1013B000C80FD11D8C8990E002C08FEF9FEFDF91A5
:1013C000CF910895CF93DF93EC010E949F098A8902
:1013D000882359F081508A8B8B8991E0980F9B8BE1
:1013E000C80FD11D8C8990E002C08FEF9FEFDF9175
:1013F000CF910895CF93DF93EC010E949F098A89D2
:1014000090E0DF91CF910895EF92FF920F931F9399
:10141000CF93DF9300D01F92CDB7DEB77C0128E5D4
:10142000E20EF11CF70120812F3FB9F026E6298357
:10143000319620812A83399701E010E09E012D5FCB
:101440003F4F42E050E0BE016F5F7F4F808191814E
:101450000E94FA088FEFF70180830F900F900F9092
:10146000DF91CF911F910F91FF90EF900895CF934F
:10147000DF93EC0188E191E099838883CE010E949B
:10148000040ACE018E5A9F4FDF91CF910C948C02AB
:10149000EF92FF920F931F93CF93DF9300D01F9291
:1014A000CDB7DEB7FC012485211128C07C0115864B
:1014B00087E489838FE38B83E75AFF4F80818A8398
:1014C0009701205F3F4F399700E410E043E050E080
:1014D000BE016F5F7F4F808191810E94FA089C015D
:1014E000215031092E3F3F4F18F0F701148606C0F6
:1014F000F70195859F5F9587815084870F900F90A6
:101500000F90DF91CF911F910F91FF90EF90089571
:10151000CF93DF93EC010E94480A8C8590E0DF9125
:10152000CF910895CF93DF93EC010E94480A8C85F8
:10153000882331F08D85C80FD11D888990E002C0C5
:101540008FEF9FEFDF91CF910895CF93DF93EC0161
:101550000E94480A8C85882359F081508C878D859C
:1015600091E0980F9D87C80FD11D888990E002C037
:101570008FEF9FEFDF91CF910895EF92FF920F933E
:101580001F93CF93DF9300D0CDB7DEB7FC01268544
:10159000211115C07C01178680E7898380E28A8348
:1015A0002089318900E210E042E050E0BE016F5F27
:1015B0007F4F848595850E94FA08F70186870F90F2
:1015C0000F90DF91CF911F910F91FF90EF900895B1
:1015D000CF93DF93EC010E94BD0A8E85882341F0F2
:1015E0008F85E889F989E80FF11D808190E002C0BC
:1015F0008FEF9FEFDF91CF910895CF93DF93EC01B1
:101600000E94BD0A8E85882369F081508E87E88903
:10161000F9898F8591E0980F9F87E80FF11D8081F0
:1016200090E002C08FEF9FEFDF91CF910895CF93AD
:10163000DF93EC010E94BD0A8E8590E0DF91CF918F
:1016400008950F931F9300E010E020E030E00E9427
:10165000FA081F910F9108950F931F93CF93DF9373
:1016600000D0CDB7DEB78C01FC018189882369F0F9
:1016700087E7898386858A8342E050E0BE016F5FF9
:101680007F4F848595850E94210BF801118A0F9068
:101690000F90DF91CF911F910F910895EF92FF92DC
:1016A0000F931F93CF93DF937C018B010E942C0B30
:1016B00086E090E00E94131DEC01198218821B82C3
:1016C0001A821D821C828017910751F0F8016081F7
:1016D00071816115710521F0448155810E9461027B
:1016E000F701D08BC787DF91CF911F910F91FF90AA
:1016F000EF900895CF93DF9300D01F92CDB7DEB760
:1017000029E42983FC0126852A836B8343E050E08A
:10171000BE016F5F7F4F848595850E94210B81E01C
:1017200090E00F900F900F90DF91CF910895CF939D
:10173000DF93FC01228921110BC0EC01438950E0A9
:1017400065897689848595850E94210B81E08B8B44
:10175000DF91CF910895CF93DF9300D0CDB7DEB75F
:10176000DC0152968C915297882379F080E5898329
:101770006A8342E050E0BE016F5F7F4F1C968D91FF
:101780009C911D970E94210B1FC05596ED91FC91D5
:10179000569753968C91539791E0980F53969C933C
:1017A0005397E80FF11D608353969C91539754967D
:1017B0008C915497981308C0ED91FC911197068075
:1017C000F781E02DCD01099581E090E00F900F9019
:1017D000DF91CF910895CF93DF93EC01863091058F
:1017E0002CF08D3091058CF4069789F445EC61EB73
:1017F00088E695E00E94E1044CE067EB88E695E01E
:101800000E94E104C6E0D0E00EC0CCE0D0E043ECA2
:1018100061EB88E695E00E94E1044AE067EB88E628
:1018200095E00E94E1046EE188E695E00E941005D3
:1018300094E0CC0FDD1F9A95E1F78F704C2F482B69
:101840006EE988E695E0DF91CF910C94E104AF92C8
:10185000BF92CF92DF92EF92FF920F931F93CF939D
:10186000DF9370937D0560937C056B017C01FF0C19
:10187000CC08DC2C76019B01AC016C2D7C2D8C2DD1
:101880009C2D03E10E94DC1CA12CE8E4BE2EF8EEA6
:10189000CF2EDD24D394E12CF12C00E010E00E9447
:1018A0007F1CF22EB32E142FD52FC62FC72ED82E65
:1018B000E92E00E10E94F71C422F66E888E695E0D9
:1018C0000E94E1042F2D3B2D412F5D2F6C2F7C2D8D
:1018D0008D2D9E2D08E00E94F71C422F67E888E6B8
:1018E00095E00E94E1044F2D68E888E695E0DF91DD
:1018F000CF911F910F91FF90EF90DF90CF90BF900D
:10190000AF900C94E10490E0FC01E95EFE4F24915D
:10191000FC01ED5FFE4F8491882399F090E0880FE1
:10192000991FFC01E750FF4FA591B491FC01E151D3
:10193000FF4F859194918FB7F894EC91E22BEC9343
:101940008FBF0895CF92DF92EF92FF920F931F9374
:10195000CF93DF93EC016B01770FEE08FF08F7FEE2
:1019600016C0E881F9810190F081E02D6DE20995C2
:101970008C0144275527BA014C195D096E097F096E
:101980002AE0CE010E94DF02080F191F06C02AE0DC
:10199000B701A6010E94DF028C0160EC72E0CE016B
:1019A0000E94CA02800F911FDF91CF911F910F916A
:1019B000FF90EF90DF90CF900895EF92FF920F93FA
:1019C0001F93CF93DF93CDB7DEB7CA55D1090FB6BA
:1019D000F894DEBF0FBECDBF7C011C821B8288EE57
:1019E00093E0A0E0B0E08D839E83AF83B8870AE2E6
:1019F00011E01A83098383E296E09E878D871A8A15
:101A00001B8A1C8A69ED72E0CE018B5A9F4F0E949F
:101A10009102BE016B5A7F4FCE0101960E944E0B80
:101A2000CE018B5A9F4F0E948C02B701CE018B5A78
:101A30009F4F0E949102BE016B5A7F4FCE010196CB
:101A40000E94B605CE018B5A9F4F0E948C02CE0198
:101A500001960E940F097C011A830983CE01019629
:101A60000E942C0B81E0EF2809F080E0C65ADF4F7E
:101A70000FB6F894DEBF0FBECDBFDF91CF911F919F
:101A80000F91FF90EF9008951092810510928005BC
:101A90006DE188E695E00E941005482F4E7F6DE9C4
:101AA00088E695E00C94E10443E861E888E695E077
:101AB0000E94E10462E188E695E00E94100583FF40
:101AC000F9CF48E062E988E695E00E94E10481E010
:101AD00090E0089541E861E888E695E00E94E1041D
:101AE0000E94440D40E06DE888E695E00E94E10424
:101AF00040E062EA88E695E00E94E10481E090E03F
:101B00000895CF93DF93CDB7DEB7C45CD1090FB68C
:101B1000F894DEBF0FBECDBF789484B5826084BDDB
:101B200084B5816084BD85B5826085BD85B58160E1
:101B300085BD80916E00816080936E00109281005F
:101B4000809181008260809381008091810081601A
:101B500080938100809180008160809380008091DB
:101B6000B10084608093B1008091B0008160809367
:101B7000B00080917A00846080937A0080917A002E
:101B8000826080937A0080917A00816080937A00ED
:101B900080917A00806880937A001092C100E09171
:101BA0002C06F0912D06A089B18982E08C93A48542
:101BB000B5851C92A685B78580E18C93108EA4898B
:101BC000B58986E08C93A289B3898C9180618C93CE
:101BD000A289B3898C9188608C93A289B3898C91F6
:101BE00080688C930288F389E02D80818F7D8083CB
:101BF00080912A068111D5C081E080932A0683E274
:101C000096E00E94040668EE73E080E090E00E9497
:101C1000CC038091280690912906DC01ED91FC917E
:101C20000084F185E02D09951816190644F335E076
:101C3000F32EEE24E39442E3D42EEAE0F1E0DE0159
:101C4000A55ABF4F8F2D01900D928A95E1F7E09232
:101C50002B0645E050E0BE01655A7F4F83E296E0D7
:101C60000E94210B8091280690912906DC01ED91BC
:101C7000FC910190F081E02D63E009956AEF70E03E
:101C800080E090E00E94CC0365EC70E08091280633
:101C9000909129060E94A6026AEF70E080E090E031
:101CA0000E94CC0363EC70E0809128069091290695
:101CB0000E94A60264EF71E080E090E00E94CC03F5
:101CC00067EB70E080912806909129060E94A60299
:101CD00064EF71E080E090E00E94CC0383E296E044
:101CE0000E940406EFE0F1E0DE0111968F2D0190D5
:101CF0000D928A95E1F7D0922B0604E010E09E0148
:101D00002B543F4F45E050E0BE016F5F7F4F83E2B1
:101D100096E00E94FA088F3FBFEF9B0739F468EE08
:101D200073E080E090E00E94CC0387CFCB54DF4F7C
:101D30002881C55BD0402111FFCF049749F5CA54D3
:101D4000DF4F2881C65BD04030E02053310984E664
:101D5000829FA001839F500D1124C954DF4F288119
:101D6000C75BD04030E0205331096AE0629FC00178
:101D7000639F900D1124840F951FC854DF4F288155
:101D8000C85BD04030E020533109820F931F02C05E
:101D900084E690E0909325068093240682E3809366
:101DA0002B0623E236E041E06CE871E0CE010196BB
:101DB0000E94F00740913E0650913F0660913A061E
:101DC00070913B06CE0101960E94AA07CE010196B2
:101DD0000E94040ACE0101960E94370A1C821B82CF
:101DE00088EE93E0A0E0B0E08D839E83AF83B88758
:101DF0008AE291E09A83898383E296E09E878D87C9
:101E00001A8A1B8A1C8A7E01EBE5EE0EF11C80E229
:101E1000D7011D928A95E9F78E010B541F4F60EA96
:101E200071E0C8010E949102B801CE0101960E94A2
:101E30004E0BC8010E948C0264EA71E0C8010E9446
:101E40009102B801CE0101960E94B605C8010E9418
:101E50008C0268EA71E0C8010E949102B801CE01CB
:101E600001960E94B605C8010E948C02CE0101961F
:101E70000E940F0937015701B9E0AB0EB11C670191
:101E8000CE0101960E949F098B89882359F0CA14BC
:101E9000DB0441F0CE0101960E94E209F601819334
:101EA0006F01EECFC7010E94C3186093EF037093D8
:101EB000F0038093F1039093F20380E2F701119213
:101EC0008A95E9F760EA71E0C8010E949102B801C1
:101ED000CE0101960E944E0BC8010E948C0264EA5A
:101EE00071E0C8010E949102B801CE0101960E94E2
:101EF000B605C8010E948C0268E472E0C8010E9425
:101F00009102B801CE0101960E94B605C8010E9457
:101F10008C02CE0101960E940F095701FAE0AF0E24
:101F2000B11C6701CE0101960E949F098B8988230D
:101F300059F0CA14DB0441F0CE0101960E94E20977
:101F4000D6018D936D01EECFC7010E94C318609337
:101F5000F5037093F6038093F7039093F80380E200
:101F6000D7011D928A95E9F760EA71E0C8010E94E5
:101F70009102B801CE0101960E944E0BC8010E9449
:101F80008C0264EA71E0C8010E949102B801CE019E
:101F900001960E94B605C8010E948C0263E672E0B9
:101FA000C8010E949102B801CE0101960E94B605B7
:101FB000C8010E948C02CE0101960E940F096701A0
:101FC000B3E0CB0ED11C5701CE0101960E949F09B0
:101FD0008B89882359F0AC14BD0441F0CE010196E1
:101FE0000E94E209F50181935F01EECFC7010E94D3
:101FF000C7181816190614F08AE090E09093EE03C3
:102000008093ED0380E2D7011D928A95E9F760EA9B
:1020100071E0C8010E949102B801CE0101960E94B0
:102020004E0BC8010E948C0264EA71E0C8010E9454
:102030009102B801CE0101960E94B605C8010E9426
:102040008C0263EC71E0C8010E949102B801CE01DC
:1020500001960E94B605C8010E948C02CE0101962D
:102060000E940F095701CE0101960E949F098B899A
:10207000882359F0AC14BD0441F0CE0101960E94B2
:10208000E209F50181935F01EECFC7010E94C718F5
:102090001816190614F089E090E09093F4038093E9
:1020A000F30380E2D7011D928A95E9F760EA71E0B7
:1020B000C8010E949102B801CE0101960E944E0B08
:1020C000C8010E948C0264EA71E0C8010E9491027A
:1020D000B801CE0101960E94B605C8010E948C028B
:1020E00066ED71E0C8010E949102B801CE0101962F
:1020F0000E94B605C8010E948C02CE0101960E9482
:102100000F095701B2E0AB0EB11C6701CE01019679
:102110000E949F098B89882359F0CA14DB0441F07F
:10212000CE0101960E94E209F60181936F01EECF84
:10213000C7010E94C7189093E2028093E10280E2F7
:10214000F70111928A95E9F760EA71E0C8010E94EF
:102150009102B801CE0101960E944E0BC8010E9467
:102160008C0264EA71E0C8010E949102B801CE01BC
:1021700001960E94B605C8010E948C0264E772E0D5
:10218000C8010E949102B801CE0101960E94B605D5
:10219000C8010E948C02CE0101960E940F094701DE
:1021A000F5E08F0E911C6701CE0101960E949F09F8
:1021B0008B89882359F0C814D90441F0CE010196C7
:1021C0000E94E209D6018D936D01EECFC7010E94F6
:1021D000E5186093DD027093DE028093DF02909336
:1021E000E00280E2D7011D928A95E9F760EA71E08A
:1021F000C8010E949102B801CE0101960E944E0BC7
:10220000C8010E948C0264EA71E0C8010E94910238
:10221000B801CE0101960E94B605C8010E948C0249
:102220006BE872E0C8010E949102B801CE010196EC
:102230000E94B605C8010E948C02CE0101960E9440
:102240000F09CE0101960E949F098B89882359F0BE
:102250006A147B0441F0CE0101960E94E209F30169
:1022600081933F01EECFC7010E94C7188A309105C4
:1022700008F4B5C488E498EEA1E0B0E08093E302EE
:102280009093E402A093E502B093E6028AE291E023
:102290009A838983CE0101960E942C0B6091EF03F3
:1022A0007091F0038091F1039091F2030E941F1C42
:1022B0004B015C01809176050E94830C809178052A
:1022C0000E94830C60E0809178050E9480036AE0A0
:1022D00070E080E090E00E94CC0361E0809178059E
:1022E0000E9480036AE070E080E090E00E94CC03EE
:1022F00061E0809176050E948003DFB6F8948091BA
:10230000DC02811124C0EDE0F1E08491E1E2F1E032
:102310009491E82FF0E0EE0FFF1FE750FF4FA591DB
:10232000B491EC91E92321F461E08AE00E948003FA
:102330008AE00E94830C8CB580618CBD8CB5806472
:102340008CBD8DE00E94830C8BE00E94830C8091F9
:10235000DC028F5F8093DC02DFBE62E488E695E0FA
:102360000E9410058231A1F540E861E888E695E019
:102370000E94E104C501B4010E94270C40E06EE810
:1023800088E695E00E94E10440E06FE888E695E089
:102390000E94E1046CE088E695E00E941005482F59
:1023A00043606CE888E695E00E94E10444E066EA58
:1023B00088E695E00E94E1044FE869E888E695E048
:1023C0000E94E10441E861E888E695E00E94E104AA
:1023D0006091EF037091F0038091F1039091F2030B
:1023E0000E941F1C0E94270C8091ED039091EE0328
:1023F0000E94EB0B6091E3027091E4028091E50290
:102400009091E6020E94AE1A4B015C0120E030EC94
:1024100043EF55E40E94A71A18160CF056C020E0AE
:1024200030E842E256E4C501B4010E94A71A18162A
:102430000CF04EC020E030EC43E756E4C501B40197
:102440000E94A71A18160CF046C020E030E842EAB5
:1024500056E4C501B4010E94A71A18160CF03EC03C
:1024600020E034E244EF56E4C501B4010E94A71A0B
:102470001816BCF520E034EE42E257E4C501B40181
:102480000E94A71A181684F520E034E244E757E4C6
:10249000C501B4010E94A71A18164CF520E034E2D9
:1024A00044EF57E4C501B4010E94A71A181614F5A9
:1024B00020E034E244E758E4C501B4010E94A71AC1
:1024C0001816DCF449E050E01AC040E050E017C0B4
:1024D00041E050E014C042E050E011C043E050E061
:1024E0000EC044E050E00BC045E050E008C046E0BC
:1024F00050E005C047E050E002C048E050E06DE128
:1025000088E695E0CD53DF4F4883C35CD040CC5381
:10251000DF4F5883C45CD0400E941005CD53DF4F7D
:102520004881C35CD040CC53DF4F5881C45CD0405D
:1025300094E0440F551F9A95E1F78F70482B6DE991
:1025400088E695E00E94E104C090E102D090E202AA
:10255000F5E0CF16D10444F029E0C216D1043CF0D6
:10256000B8E0CB2ED12C03C0A5E0CA2ED12C6DE152
:1025700088E695E00E94100534E0C31AD108CC0C1F
:10258000DD1C817F482F4C296DE988E695E00E948B
:10259000E10444E369EB88E695E00E94E104809061
:1025A000DD029090DE02A090DF02B090E00277277B
:1025B000B7FC7A956B2D5A2D492D60EA88E695E097
:1025C0000E94E104482D61EA88E695E00E94E1045A
:1025D00068EE73E080E090E00E94CC031C821B82D6
:1025E00088EE93E0A0E0B0E08D839E83AF83B88750
:1025F0007AE2C72E71E0D72EDA82C98283E296E0B2
:102600009E878D871A8A1B8A1C8A6DEE71E0C7012E
:102610000E949102B701CE0101960E944E0BC701A4
:102620000E948C0264EF71E0C7010E949102B70121
:10263000CE0101960E94B605C7010E948C02CE0110
:1026400001960E940F09DA82C982CE0101960E948A
:102650002C0B212C33243394F8EE4F2EF3E05F2E15
:10266000612C712C4601C8010296CF53DF4F99832C
:102670008883C15CD04080915D0590915E05009794
:1026800009F0A5C08091ED039091EE030E94EB0B41
:102690000E94440D45E861E888E695E00E94E10467
:1026A0000E94060420912E0630912F06409130069C
:1026B000509131065B016C01A21AB30AC40AD50A13
:1026C000A8E9AA16AAE3BA06C104D10408F4DCC139
:1026D00060932E0670932F068093300690933106F8
:1026E00062E188E695E00E941005D82E0E94440D14
:1026F0004D2D62E988E695E00E94E104D6FE27C0F0
:10270000D5FC25C010927F0510927E058091800532
:1027100090918105892B11F062E201C063E188E6A6
:1027200095E00E941005C82ED12C60E188E695E066
:102730000E941005482F6DE888E695E00E94E104AC
:1027400041E861E888E695E00E94E10415C061E097
:1027500088E695E00E941005863861F040E06DE85B
:1027600088E695E00E94E10446E861E888E695E0A5
:102770000E94E104C12CD12CD092E803C092E7035F
:10278000CD2809F481C1E7EEF2E0910111922150C8
:102790003040E1F747EEA42E42E0B42EC12CD12CFC
:1027A00088E695E00E945D05892B09F40BC1C114F0
:1027B000E1E0DE0609F406C188E695E00E944205E4
:1027C000D5018D935D01BFEFCB1ADB0AE9CF0197ED
:1027D00009F0CBC00E94060460933606709337065A
:1027E00080933806909339066093E9037093EA0367
:1027F0008093EB039093EC038091E9039091EA03BB
:10280000A091EB03B091EC0340913606509137064E
:102810006091380670913906841B950BA60BB70B97
:1028200088399A43A105B1050CF05AC00E940604EC
:102830006093E9037093EA038093EB039093EC03B6
:1028400088E292E00E94DD0C811107C068EE73E01F
:1028500080E090E00E94CC03CFCF23E236E040E05E
:1028600068E272E0CE0101960E94F007A9EFB3E0A2
:10287000F1011D923197E9F739EFA32E33E0B32E22
:10288000C12CD12CCE0101960E94480A8D85882347
:1028900009F459C2C114E1E0DE0609F454C2CE01C4
:1028A00001960E94A50AD5018D935D01BFEFCB1A59
:1028B000DB0AE8CF6091EF037091F0038091F103A0
:1028C0009091F2030E941F1C0E94270C8091ED033F
:1028D0009091EE030E94EB0BCE0101960E94370A05
:1028E0001C821B824D825E826F8278869A828982E8
:1028F00083E296E09E878D871A8A1B8A1C8A68E38A
:1029000072E0C7010E949102B701CE0101960E94B8
:102910004E0BC7010E948C026BE372E0C7010E945C
:102920009102B701CE0101960E94B605C7010E942F
:102930008C0268E272E0C7010E949102B701CE01E9
:1029400001960E94B605C7010E948C02CE01019635
:102950000E940F0910925E0510925D059A8289828D
:10296000CE0101960E942C0B8FC023E236E040E09E
:1029700069EF74E0CE0101960E94F007A9EFB3E081
:10298000F1011D923197E9F729EFA22E23E0B22E33
:10299000C12CD12CCE0101960E94480A8D85882336
:1029A00009F467C2C114E1E0DE0609F462C2CE0197
:1029B00001960E94A50AD5018D935D01BFEFCB1A48
:1029C000DB0AE8CF23E236E041E06CE972E0C701C0
:1029D0000E94F0076DEA72E0C7010E94CA026AE134
:1029E00088E695E00E941005B82E60917C057091F4
:1029F0007D05072E000C880B990B0E94AE1A24E867
:102A000032EF4EE45EE40E94A71A87FD1AC18DE9F9
:102A100090E06B2D70E0681B790BC7010E94A20C3F
:102A20006FEF71E0C7010E94CA026091E7037091E5
:102A3000E803C7010E94A20CC7010E94040A23E216
:102A400036E041E065E072E0CE0101960E94F007B9
:102A5000A60167EE72E0CE0101960E94AA07CE01A0
:102A600001960E94040A8091E7028111EDC081E085
:102A700090E090935E0580935D05CE0101960E94E3
:102A8000370AC7010E94370A0E94060420913206C5
:102A90003091330640913406509135065B016C014C
:102AA000A21AB30AC40AD50AA0E6AA16AAEEBA0662
:102AB000C104D10408F490C06093320670933306C9
:102AC000809334069093350680E4EDE1F5E0DF0174
:102AD0001D928A95E9F7F70113821282448255828A
:102AE000668277829182808283E296E095878487EE
:102AF000118A128A138A6FE372E0CE0101960E9456
:102B00009102BE016F5F7F4FC7010E944E0BCE0145
:102B100001960E948C0264E472E0CE0101960E944C
:102B20009102BE016F5F7F4FC7010E94B605CE01C3
:102B300001960E948C02C7010E940F099DE1C92ED7
:102B400095E0D92EC7010E949F09D70152968C911A
:102B5000882361F0BDE3CB16B5E0DB0639F0C70191
:102B60000E94E209F60181936F01ECCF8DE195E0BF
:102B70000E94E5186093190570931A0580931B0550
:102B800090931C0523E236E041E063EB72E0CE0156
:102B900001960E94F0074091190550911A05609125
:102BA0001B0570911C052AE0CE0101960E94DF02F0
:102BB00060EC72E0CE0101960E94CA02CE0101963D
:102BC0000E94040ACE0101960E94370AD7018D9215
:102BD0009C92C7010E942C0B0E94BE014CCDFC01AF
:102BE000EC5CFF4F0C94771C88E79EE1A0E0B0E01E
:102BF00045CB80EA98E2A0E0B0E040CB80EF9CE3D8
:102C0000A0E0B0E03BCB80E491E5A0E0B0E036CBC3
:102C100082E19AE7A0E0B0E031CB84EE92EAA0E056
:102C2000B0E02CCB84E294EFA0E0B0E027CB80E9C9
:102C300090EDA3E0B0E022CB80E291EAA7E0B0E023
:102C40001DCB84EA90E0E5CE8CE0D8011D928A95F8
:102C5000E9F78091EB021F928F938091EA021F9215
:102C60008F938091E9021F928F938091E8021F92C7
:102C70008F93A3E1B2E0BF93AF931F930F930E9492
:102C80004F1FF80101900020E9F73197E01BF10B8D
:102C90000FB6F894DEBF0FBECDBF3997E0F0CF532B
:102CA000DF4FA881B981C15CD0409801C12CD12CE3
:102CB000F80101900020E9F7CF01801B910B0397E9
:102CC000C816D90640F48D91F90181939F01FFEF59
:102CD000CF1ADF0AEDCFF801EC0DFD1D1082E9EFF0
:102CE000F4E080E2DF01A82E1D92AA94E9F71F9379
:102CF0000F932CE132E03F932F931F928F93FF931A
:102D0000EF930E941F1F89EF94E00E94DD0C0FB625
:102D1000F894DEBF0FBECDBF882331F082E090E093
:102D200090935E0580935D0567EC70E080E496E02B
:102D30000E94A60260915D0570915E0580E496E0B8
:102D40000E94A20C9ACECE0101960E94040AB3E022
:102D5000CB16D1045CF468EC70E080E090E00E9457
:102D6000CC03CE0101960E94370A46CD0E9406048C
:102D70006093E9037093EA038093EB039093EC0371
:102D80008091E9039091EA03A091EB03B091EC03E9
:102D90004091360650913706609138067091390699
:102DA000841B950BA60BB70B883C9243A105B1057C
:102DB00094F40E946A0DA60169EF73E088E695E03D
:102DC0000E946E050E94540D61E070E080E090E08A
:102DD0000E94CC03CBCF6091F5037091F6038091F4
:102DE000F7039091F8030E941F1C0E94270C80910A
:102DF000F3039091F4030E94EB0B62E070E080E03B
:102E000090E00E94CC038091E9039091EA03A091A5
:102E1000EB03B091EC034091360650913706609178
:102E2000380670913906841B950BA60BB70B8836B4
:102E30009244A105B1050CF03DCD0E946A0DA6019A
:102E400069EF73E088E695E00E946E050E94540DDC
:102E500061E070E080E090E00E94CC030E940604F4
:102E60006093E9037093EA038093EB039093EC0380
:102E7000CACFCE0101960E94040AE3E0CE16D10427
:102E80001CF4CE010196FECD85E0A82EB12C0E9447
:102E90006A0DA60169EF73E088E695E00E946E0571
:102EA0000E94540D6AE070E080E090E00E94CC0344
:102EB0006091F5037091F6038091F7039091F80308
:102EC0000E941F1C0E94270C8091F3039091F40331
:102ED0000E94EB0B64E170E080E090E00E94CC0384
:102EE0000E946A0DA60169EF73E088E695E00E94F2
:102EF0006E050E94540D64E170E080E090E00E9455
:102F0000CC036091EF037091F0038091F1039091F5
:102F1000F2030E941F1C0E94270C8091ED039091E8
:102F2000EE030E94EB0B64EF71E080E090E00E9402
:102F3000CC03F1E0AF1AB10809F0A9CFD70113967D
:102F40001C921E921297F701448255826682778204
:102F50009182808283E296E095878487118A128A23
:102F6000138A68E372E0C8010E949102B801C701A8
:102F70000E944E0BC8010E948C026BE372E0C801F4
:102F80000E949102B801C7010E94B605C8010E94C3
:102F90008C0269EF74E0C8010E949102B801C70178
:102FA0000E94B605C8010E948C02C7010E940F0949
:102FB00010925E0510925D05D7018D929C92C7011B
:102FC0000E942C0B5ECF8AE396E00E948C028EE773
:102FD00091E09093410680934006809152068111C2
:102FE0000BC08091550690915606009711F00E94F3
:102FF000A81D81E080935206809150069091510661
:10300000009711F00C94A81D0895CF93DF93E6E884
:10301000F5E01382128248EE53E060E070E04483F2
:103020005583668377838CE391E09183808385EC7D
:1030300090E09587848784EC90E09787868780EC82
:1030400090E0918B808B81EC90E0938B828B82EC73
:1030500090E0958B848B86EC90E0978B868B118E1D
:10306000128E138E148EA8E6B5E013961C921E9253
:1030700012978EE491E011969C938E9380E51C96B6
:103080008C931C9781E01D968C931D972AE030E06D
:103090001F963C932E931E9729E030E051963C9367
:1030A0002E93509722E030E053963C932E93529704
:1030B00055961C921E92549757961C921E925697A4
:1030C00059961C921E9258975B961C921E925A9784
:1030D00014961D921D921D921C921797C3E2D6E082
:1030E000D0938505C0938405A0E4B6E013961C92A6
:1030F0001E92129714964D935D936D937C93179740
:103100002EE731E011963C932E931D96DC93CE93DF
:103110001C971E961C921E971F961C921F975196E5
:103120001C921E92509752968C931882FE83ED83C8
:103130001F821886FA87E98765EC72E08AE396E0D9
:103140000E9491020E94060460933606709337062F
:1031500080933806909339060E94060460933206E5
:103160007093330680933406909335060E940604CC
:1031700060932E0670932F0680933006909331064D
:10318000DF91CF910895662777270C942919FC01C8
:1031900088279927E89421912032E9F3293010F00B
:1031A0002E30C8F32B3241F02D3239F4689404C02C
:1031B0000E942119820F911D219120532A30C0F3C2
:1031C0001EF4909581959F4F08951F93FC019927B8
:1031D0008827BC01E89411911032E9F3193010F0FE
:1031E0001E30C8F31B3251F01D3249F4689406C0FA
:1031F0000E940C19610F711D811D911D11911053B9
:103200001A30B0F33EF490958095709561957F4F9C
:103210008F4F9F4F1F910895592F482F372F262FDB
:10322000660F771F881F991F660F771F881F991FCA
:10323000620F731F841F951F660F771F881F991FCA
:1032400008957AE0979F902D879F802D910D1124EE
:103250000895A0E0B0E0EFE2F9E10C94DD1BEC0191
:103260007B016115710519F0DB018D939C938E0133
:103270000F5F1F4F7880872D90E00E94861A892B60
:1032800011F0E801F4CFBDE27B1205C00F5F1F4FC4
:103290007980C1E008C0EBE27E1204C08E010E5FAF
:1032A0001F4F7980C0E06801F1E0CF1AD10843E0F8
:1032B00050E064E870E0C6010E948F1A892BF1F497
:1032C000680122E0C20ED11C45E050E06FE770E0DB
:1032D000C6010E948F1A892B21F4680187E0C80E6D
:1032E000D11CE114F10419F0D701CD92DC92C11187
:1032F000FFC060E070E080E89FE703C143E050E07A
:103300006CE770E0C6010E948F1A892B51F4E1141A
:10331000F10409F4F2C00E5F1F4FF701118300831F
:10332000ECC0680160E070E0CB0100E010E0F60165
:10333000D0EDD70DDA3058F52C2F2260622E2C2FCD
:103340002870C2FF05C0211128C00F5F1F4F25C084
:10335000222311F001501109A5E0B0E09B01AC015E
:103360000E94CE1B4B015C01880C991CAA1CBB1C43
:10337000C501B4016D0F711D811D911D6839A9E949
:103380007A078A07A9E19A0740F0C66005C0DE3FC8
:1033900051F4C3FD44C0C8606C2EBFEFCB1ADB0AEA
:1033A0007080C62DC4CF2D2F2F7D2531C1F54081D2
:1033B0004D3211F4C06106C04B3221F0319621E04C
:1033C00030E006C03296D60111964C9122E030E0F2
:1033D000A0EDA40FAA3018F0E21BF30B20C040E0D0
:1033E00050E04038BCE05B075CF49A01220F331FC9
:1033F000220F331F420F531F440F551F4A0F511DF9
:103400003196DF0111972C91A0EDA20FAA3048F35D
:10341000C4FF03C0519541955109040F151FC1FF09
:1034200007C0E114F10421F03197D701ED93FC932B
:103430000E94AC1AC370C33019F06B017C0106C046
:103440006B017C01F7FAF094F7F8F09420E030E09B
:10345000A901C701B6010E94A71A882309F445C033
:1034600017FF06C0119501951109CBE9D0E002C004
:10347000C3EBD0E05E01B8E1AB1AB1084601BE2D46
:10348000AF2D90E2E92EF12C0E151F0584F0FE0100
:103490002591359145915491B4018B2F9A2F0E941B
:1034A0000D1B4B01B82FA92F0E191F09EDCF249723
:1034B000F594E794CA15DB0539F76401EB2EFA2E73
:1034C0008E2D880F8F2D881F8F3F49F020E030E030
:1034D000A901C701B6010E94A71A811106C082E2A4
:1034E00090E09093580680935706C701B60109C033
:1034F00060E070E080E89FEF04C060E070E080EC86
:103500009FE7CDB7DEB7EEE00C94F91B91110C9458
:103510007A1B803219F089508550C8F70895FB0155
:10352000DC014150504088F08D9181341CF08B3586
:103530000CF4805E659161341CF06B350CF4605EB8
:10354000861B611171F3990B0895881BFCCF0E94B3
:10355000E91A08F481E00895E89409C097FB3EF465
:1035600090958095709561957F4F8F4F9F4F9923D0
:10357000A9F0F92F96E9BB279395F695879577954E
:103580006795B795F111F8CFFAF4BB0F11F460FF0E
:103590001BC06F5F7F4F8F4F9F4F16C0882311F066
:1035A00096E911C0772321F09EE8872F762F05C07A
:1035B000662371F096E8862F70E060E02AF09A9515
:1035C000660F771F881FDAF7880F9695879597F90A
:1035D0000895990F0008550FAA0BE0E8FEEF1616A4
:1035E0001706E807F907C0F012161306E407F507F7
:1035F00098F0621B730B840B950B39F40A2661F06B
:10360000232B242B252B21F408950A2609F4A1400D
:10361000A6958FEF811D811D08950E94201B0C949B
:10362000941B0E94861B38F00E948D1B20F095236E
:1036300011F00C947D1B0C94831B11240C94C81B5B
:103640000E94A51B70F3959FC1F3950F50E0551F85
:10365000629FF001729FBB27F00DB11D639FAA27E7
:10366000F00DB11DAA1F649F6627B00DA11D661F36
:10367000829F2227B00DA11D621F739FB00DA11D57
:10368000621F839FA00D611D221F749F3327A00D11
:10369000611D231F849F600D211D822F762F6A2FAD
:1036A00011249F5750409AF0F1F088234AF0EE0F12
:1036B000FF1FBB1F661F771F881F91505040A9F73F
:1036C0009E3F510580F00C947D1B0C94C81B5F3FFE
:1036D000E4F3983ED4F3869577956795B795F7957B
:1036E000E7959F5FC1F7FE2B880F911D96958795F3
:1036F00097F9089599278827089597F99F6780E893
:1037000070E060E008959FEF80EC089500240A9433
:103710001616170618060906089500240A941216AC
:103720001306140605060895092E0394000C11F4DF
:10373000882352F0BB0F40F4BF2B11F460FF04C08C
:103740006F5F7F4F8F4F9F4F089557FD9058440FE5
:10375000551F59F05F3F71F04795880F97FB991FF0
:1037600061F09F3F79F087950895121613061406AD
:10377000551FF2CF4695F1DF08C01616170618063A
:10378000991FF1CF86957105610508940895E89415
:10379000BB2766277727CB0197F908950E94101C55
:1037A000A59F900DB49F900DA49F800D911D112495
:1037B00008952F923F924F925F926F927F928F92D5
:1037C0009F92AF92BF92CF92DF92EF92FF920F93B0
:1037D0001F93CF93DF93CDB7DEB7CA1BDB0B0FB6BA
:1037E000F894DEBF0FBECDBF09942A883988488877
:1037F0005F846E847D848C849B84AA84B984C8840D
:10380000DF80EE80FD800C811B81AA81B981CE0F03
:10381000D11D0FB6F894DEBF0FBECDBFED010895E8
:10382000A29FB001B39FC001A39F700D811D112401
:10383000911DB29F700D811D1124911D08950E944C
:10384000261C6894B1110C94C81B08950E94AD1BEE
:1038500088F09F5798F0B92F9927B751B0F0E1F051
:10386000660F771F881F991F1AF0BA95C9F714C001
:10387000B13091F00E94C71BB1E008950C94C71BB2
:10388000672F782F8827B85F39F0B93FCCF386953A
:1038900077956795B395D9F73EF490958095709597
:1038A00061957F4F8F4F9F4F0895A1E21A2EAA1B5B
:1038B000BB1BFD010DC0AA1FBB1FEE1FFF1FA217E0
:1038C000B307E407F50720F0A21BB30BE40BF50BDD
:1038D000661F771F881F991F1A9469F76095709566
:1038E000809590959B01AC01BD01CF010895EE0F2D
:1038F000FF1F0590F491E02D0994689401C0E894AD
:103900008F929F92CF93DF930E948B1CDF91CF9178
:103910009F908F90089588249924F401E401B0E4E5
:103920009F93AA279A158B049C04ED05FE05CF05ED
:10393000D007A10798F4AD2FDC2FCF2FFE2FE92D54
:10394000982C892E982F872F762F652F542F432F51
:10395000322F2227B85031F7BF9127C01B2EBF91BD
:10396000BB27220F331F441F551F661F771F881F59
:10397000991F881C991CEE1FFF1FCC1FDD1FAA1F5B
:10398000BB1F8A149B04EC05FD05CE05DF05A007CF
:10399000B10748F08A189B08EC09FD09CE09DF0938
:1039A000A00BB10B21601A94E1F62EF49401AF0143
:1039B000BE01CD01000C08950F93083090F0982FB0
:1039C000872F762F652F542F432F322F2227085011
:1039D000F4CF220F331F441F551F661F771F881F08
:1039E000991F0A95B2F70F91089597FB10F8169456
:1039F00000080F93083098F00850232F342F452FDC
:103A0000562F672F782F892F902DF4CF05949795F7
:103A100087957795679557954795379527950A9593
:103A2000AAF70F910895CF93DF938230910510F498
:103A300082E090E0E0915B06F0915C0620E030E0EF
:103A4000C0E0D0E0309711F140815181481759070B
:103A5000C0F04817590761F482819381209719F0CB
:103A60009B838A832BC090935C0680935B0626C061
:103A70002115310519F04217530718F49A01BE01B8
:103A8000DF01EF010280F381E02DDCCF211531054C
:103A900009F1281B390B2430310590F412968D91D1
:103AA0009C9113976115710521F0FB01938382832B
:103AB00004C090935C0680935B06FD01329644C07F
:103AC000FD01E20FF31F81939193225031092D9351
:103AD0003C933AC02091590630915A06232B41F469
:103AE000209106013091070130935A062093590620
:103AF00020910401309105012115310541F42DB7C4
:103B00003EB74091080150910901241B350BE0910B
:103B10005906F0915A06E217F307A0F42E1B3F0B4B
:103B20002817390778F0AC014E5F5F4F241735072F
:103B300048F04E0F5F1F50935A06409359068193E9
:103B4000919302C0E0E0F0E0CF01DF91CF910895C2
:103B50000F931F93CF93DF93009709F48CC0FC0160
:103B600032971382128200915B0610915C06011558
:103B7000110581F420813181820F931F2091590614
:103B800030915A062817390779F5F0935A06E093D1
:103B9000590671C0D80140E050E0AE17BF0750F49D
:103BA00012962D913C911397AD012115310509F124
:103BB000D901F3CF9D01DA013383228360817181C2
:103BC000860F971F8217930769F4EC0128813981CA
:103BD000260F371F2E5F3F4F318320838A819B81C1
:103BE00093838283452B29F4F0935C06E0935B0674
:103BF00042C01396FC93EE931297ED0149915991AF
:103C00009E01240F351FE217F30771F48081918123
:103C1000840F951F029611969C938E9382819381B7
:103C200013969C938E931297E0E0F0E0D8011296E1
:103C30008D919C911397009719F0F8018C01F6CFA4
:103C40008D919C9198012E5F3F4F820F931F209181
:103C5000590630915A062817390769F4309729F424
:103C600010925C0610925B0602C0138212821093BF
:103C70005A0600935906DF91CF911F910F91089535
:103C8000A0E0B0E0E6E4FEE10C94DD1BEC0100975F
:103C900021F4CB010E94131DB8C0FC01E60FF71FF1
:103CA0009C0122503109E217F30708F4ACC0D90196
:103CB0000D911C91119706171707B0F005301105EB
:103CC00008F49FC0C80104978617970708F499C0A5
:103CD00002501109061B170B019311936D937C93EE
:103CE000CF010E94A81D8DC05B01A01AB10A4C0132
:103CF000800E911EA0915B06B0915C0640E050E002
:103D0000E12CF12C109709F44AC0A815B905D1F59A
:103D10006D907C901197630182E0C80ED11CCA148B
:103D2000DB0480F1A3014A195B096A0182E0C80E35
:103D3000D11C1296BC9012971396AC91B5E0CB169D
:103D4000D10440F0B282A38351834083D9016D93A3
:103D50007C930AC00E5F1F4FC301800F911FF901B2
:103D600091838083EB2DFA2FE114F10431F0D70118
:103D70001396FC93EE93129744C0F0935C06E09385
:103D80005B063FC08D919C9111974817590708F425
:103D9000AC017D0112960D90BC91A02DB3CF809106
:103DA000590690915A0688159905E1F44617570768
:103DB000C8F48091040190910501009741F48DB7FA
:103DC0009EB74091080150910901841B950BE8179B
:103DD000F907C8F4F0935A06E0935906F901718384
:103DE00060830FC0CB010E94131D7C01009759F026
:103DF000A801BE010E940F1FCE010E94A81DC7018D
:103E000004C0CE0102C080E090E0CDB7DEB7EEE0A6
:103E10000C94F91B81E090E0F8940C94F021FB01E4
:103E2000DC0102C001900D9241505040D8F7089536
:103E3000FB01DC0101900D920020E1F70895AEE056
:103E4000B0E0E5E2FFE10C94E71B0D891E898F8944
:103E5000988D26E02C831A83098397FF02C080E0A7
:103E600090E801979E838D83AE01455E5F4F698D1B
:103E70007A8DCE0101960E94721F4D815E8157FDA1
:103E80000AC02F813885421753070CF49A01F801B4
:103E9000E20FF31F10822E96E4E00C94031CAEE0B8
:103EA000B0E0E5E5FFE10C94E71B0D891E8986E093
:103EB0008C831A8309838FEF9FE79E838D83AE01E6
:103EC000475E5F4F6F89788DCE0101960E94721F09
:103ED0002F813885F801E20FF31F10822E96E4E05F
:103EE0000C94031CACE0B0E0E8E7FFE10C94D91BB4
:103EF0007C016B018A01FC0117821682838181FF9C
:103F0000BDC1CE0101964C01F7019381F60193FDED
:103F1000859193FF81916F01882309F4ABC18532AC
:103F200039F493FD859193FF81916F01853229F4D6
:103F3000B70190E00E945A21E7CF512C312C20E0AC
:103F40002032A0F48B3269F030F4803259F08332A1
:103F500069F420612CC08D3239F0803339F421604E
:103F600026C02260246023C0286021C027FD27C00E
:103F700030ED380F3A3078F426FF06C0FAE05F9E45
:103F8000300D1124532E13C08AE0389E300D1124B9
:103F9000332E20620CC08E3221F426FD6BC12064CA
:103FA00006C08C3611F4206802C0883641F4F60150
:103FB00093FD859193FF81916F018111C1CF982F5E
:103FC0009F7D9554933028F40C5F1F4FFFE3F983D6
:103FD0000DC0833631F0833771F0833509F05BC053
:103FE00022C0F801808189830E5F1F4F44244394CF
:103FF000512C540115C03801F2E06F0E711CF8010C
:10400000A080B18026FF03C0652D70E002C06FEF75
:104010007FEFC5012C870E944F212C0183012C8545
:104020002F77222E17C03801F2E06F0E711CF801B5
:10403000A080B18026FF03C0652D70E002C06FEF45
:104040007FEFC5012C870E9444212C012C8520681C
:10405000222E830123FC1BC0832D90E048165906B5
:10406000B0F4B70180E290E00E945A213A94F4CF74
:10407000F50127FC859127FE81915F01B70190E052
:104080000E945A2131103A94F1E04F1A510841141C
:10409000510471F7E5C0843611F0893639F5F8011D
:1040A00027FF07C060817181828193810C5F1F4F60
:1040B00008C060817181072E000C880B990B0E5F80
:1040C0001F4F2F76722E97FF09C09095809570959F
:1040D00061957F4F8F4F9F4F2068722E2AE030E00E
:1040E000A4010E949221A82EA81844C0853729F463
:1040F0002F7EB22E2AE030E025C0F22FF97FBF2EAE
:104100008F36C1F018F4883579F0B4C0803719F0D3
:10411000883721F0AFC02F2F2061B22EB4FE0DC022
:104120008B2D8460B82E09C024FF0AC09F2F966093
:10413000B92E06C028E030E005C020E130E002C022
:1041400020E132E0F801B7FE07C060817181828111
:1041500093810C5F1F4F06C06081718180E090E009
:104160000E5F1F4FA4010E949221A82EA818FB2DBC
:10417000FF777F2E76FE0BC0372D3E7FA51450F4BF
:1041800074FE0AC072FC08C0372D3E7E05C0BA2CF2
:10419000372D03C0BA2C01C0B52C34FF0DC0FE0171
:1041A000EA0DF11D8081803311F4397E09C032FFA0
:1041B00006C0B394B39404C0832F867809F0B394F7
:1041C00033FD13C030FF06C05A2CB31418F4530C3F
:1041D0005B18B32CB31468F4B70180E290E03C871D
:1041E0000E945A21B3943C85F5CFB31410F43B18C8
:1041F00001C0312C34FF12C0B70180E390E03C874E
:104200000E945A213C8532FF17C031FD03C088E768
:1042100090E002C088E590E0B7010CC0832F86785B
:1042200059F031FF02C08BE201C080E237FD8DE220
:10423000B70190E00E945A21A51438F4B70180E339
:1042400090E00E945A215A94F7CFAA94F401EA0D03
:10425000F11D8081B70190E00E945A21A110F5CF95
:10426000332009F451CEB70180E290E00E945A2138
:104270003A94F6CFF7018681978102C08FEF9FEFC6
:104280002C96E2E10C94F51BFC0105906150704006
:104290000110D8F7809590958E0F9F1F0895FC010F
:1042A0006150704001900110D8F7809590958E0F65
:1042B0009F1F08950F931F93CF93DF93FB012381DB
:1042C00021FD03C08FEF9FEF28C022FF16C046815B
:1042D0005781248135814217530744F4A081B1816D
:1042E0009D012F5F3F4F318320838C93268137813F
:1042F0002F5F3F4F3783268310C0EB01092F182F04
:104300000084F185E02D0995892BE1F68E819F814E
:1043100001969F838E83812F902FDF91CF911F91E4
:104320000F910895FA01AA27283051F1203181F127
:10433000E8946F936E7F6E5F7F4F8F4F9F4FAF4FAD
:10434000B1E03ED0B4E03CD0670F781F891F9A1FC0
:10435000A11D680F791F8A1F911DA11D6A0F711D74
:10436000811D911DA11D20D009F468943F912AE080
:10437000269F11243019305D3193DEF6CF01089568
:10438000462F4770405D4193B3E00FD0C9F7F6CF99
:10439000462F4F70405D4A3318F0495D31FD405261
:1043A000419302D0A9F7EACFB4E0A69597958795F7
:1043B00077956795BA95C9F70097610571050895D6
:1043C0009B01AC010A2E0694579547953795279582
:1043D000BA95C9F7620F731F841F951FA01D08951A
:1043E00010E0C7E9D0E004C0FE010E94771C2196CE
:0A43F000C839D107C9F7F894FFCFD0
:1043FA00ED01ED0100005D068000585858585858E4
:10440A0058313030000000000702AA0735020602C0
:10441A00880AA50A920A000000007A0BC200350237
:10442A000502FA09E209CF09000000005501C2009D
:10443A00ED009C011E01FC00100100000000EF01CC
:10444A006E053502EE015D05420514050000000007
:10445A003802C2003502340238023802380200003B
:10446A0000003802C2003502340200000000AB0B23
:10447A009B083502970B170BFD0AE80A2F76617223
:10448A002F6176722F66775F76657273696F6E0039
:10449A0075636900676574006C6F726177616E2E6F
:1044AA00726164696F2E72785F6672657175656E86
:1044BA006379006C6F726177616E2E726164696FE5
:1044CA002E54585346006C6F726177616E2E72617A
:1044DA0064696F2E636F646572617465006C6F67DF
:1044EA0067657200226D63755F626F6F7422007375
:1044FA00697A653D002F7661722F696F742F646146
:10450A007461002578257825782578002F766172E0
:10451A002F696F742F2573002F7661722F696F745C
:10452A002F646C6461746100726D002D72660064A0
:10453A00617465002B2573006C6F726177616E2E52
:10454A00726164696F2E74785F6672657175656EE3
:10455A006379006C6F726177616E2E726164696F44
:10456A002E5346006C6F726177616E2E72616469B8
:10457A006F2E707265616D626C65006C6F72617727
:10458A00616E2E726164696F2E4257002F766172D6
:10459A002F696F742F636667646174610072737345
:1045AA00693D002F7661722F696F742F646F6700FF
:1045BA000D0A00FE0073696E676C655F706B745F4D
:0C45CA006677645F76303034006C73005C
:00000001FF
